:03000000020A02EF
:0C0A0200787FE4F6D8FD75811402090B22
:100885006275735F63616E63656C6C6564002041BE
:100895003120746F204231200031312E3330204118
:1008A5004D0020413220746F204232200031322E1B
:1008B500333020414D0020413320746F20423320D6
:0908C50000312E333020414D00BA
:030003000208CE22
:1008CE00C0E0C0F0C083C082C0D075D000C000C0F0
:1008DE0001C002C003C004C005C006C0071209E271
:1008EE00D287D007D006D005D004D003D002D001D5
:0D08FE00D000D0D0D082D083D0F0D0E03236
:10090B00C2871209C9D2AFD2A8D28875892175982E
:10091B0050758DFDD28EE4F508F5091209F58F0A95
:10092B00120A18AF0A120A220509E5097002050816
:0D093B00D39414E508940040E2D28E80D9D8
:1009C9007F38120A0E7F80120A0E7F0C120A0E7FE0
:0909D90006120A0E7F01020A0E4B
:1009E2007F01120A0E7F80120A0E7BFF7A08798538
:0309F20002097582
:0A0A0E008F90C2811209A0C283225A
:0A0A18008F90D2811209A0C2832240
:060975008B108A118912AB
:10097B00E4F513F514AB10AA11A912851482851393
:10098B0083120948FF600D120A180514E51470E56F
:04099B00051380E1DF
:01099F002235
:0809A000C282D2837F027E00B7
:1009A800E4FDFCC3ED9FEC9E5016758CFC758A66C1
:1009B800D28C308DFDC28DC28C0DBD00010C80E340
:0109C800220C
:080A22008F993099FDC2992261
:0C09F50020980512080080F8C298AF9905
:010A010022D2
:10080000C2A2D2A3D2A0D2A120A4217F01120A0E9B
:100810007F80120A0E7BFF7A0879931209757FC3D5
:10082000120A0E7BFF7A08799E120975C2A2D2A322
:10083000D2A1D2A020A5217F01120A0E7F80120A28
:100840000E7BFF7A0879A71209757FC3120A0E7B07
:10085000FF7A0879B2120975C2A2D2A3D2A1D2A09E
:1008600020A6217F01120A0E7F80120A0E7BFF7ADA
:100870000879BB1209757FC3120A0E7BFF7A0879CB
:05088000C612097522FB
:10094800BB010CE58229F582E5833AF583E0225064
:1009580006E92582F8E622BBFE06E92582F8E222AE
:0D096800E58229F582E5833AF583E49322C8
:00000001FF
